0127216662534SJ202505M0000130000001
02273287066310000000003ADMINISTRACION                                                          03020250531202505311
03273287066310001      03000 000000046784390C      
03273287066310002      00000 000000008421190C      
03273287066310005      00200 000000000736070C      
03273287066310022      00000 000000002475089C      
03273287066310101      00000 000000006153582D      
03273287066310102      00000 000000001678250D      
03273287066310103      00000 000000003505004D      
03273287066310105      00000 000000001460418D      
0427328706631000000101 1 0493040 031 011 011 0100000000000000011950000000000000000000000000000000000000000000000000000000000000000000000000000000000000000000000000000000000000000000000000000000000000000000000000000000000000000000000000000000000000000000000000000000000000000000000000000000000000000000000000000000000000000000000000000000000000000000000000000000000000000