0127200418617SJ202507M0000130000001
02273870593130000000002ADMINISTRACION                                                          03020250731202507311
03273870593130001      03000 000000051509568C      
03273870593130002      00000 000000004120765C      
03273870593130005      00100 000000000370870C      
03273870593130006      00000 000000003000000C      
03273870593130101      00000 000000006160132D      
03273870593130102      00000 000000001680036D      
03273870593130103      00000 000000003540072D      
03273870593130105      00000 000000001475030D      
0427387059313000110101 1 0490010 @@1 01  00  0000000000000000011950000000000000000000000000000000000000000000000000000000000000000000000000000000000000000000000000000000000000000000000000000000000000000000000000000000000000000000000000000000000000000000000000000000000000000000000000000000000000000000000000000000000000000000000000000000000000000000000000000000000000000