0130717216896SJ202505M0000130000007
02273087609660000000001VENTAS                                                                  03020250531202505311
03273087609660001      03000 000000047144473C      
03273087609660002      00000 000000001414334C      
03273087609660006      00200 000000000647451C      
03273087609660008      00000 000000004044949C      
03273087609660101      00000 000000005857633D      
03273087609660102      00000 000000001597536D      
03273087609660103      00000 000000001597536D      
03273087609660105      00000 000000001065024D      
03273087609660106      00000 000000000266256D      
03273087609660107      00000 000000001597536D      
03273087609660200      00000 000000006212988C      
03273087609660205      00000 000000000186390C      
03273087609660210      00000 000000000533068C      
03273087609660300      00000 000000000207973D      
03273087609660305      00000 000000000207973D      
03273087609660310      00000 000000000034662D      
03273087609660315      00000 000000000138649D      
0427308760966000110101 1 0490010 @@1 01  00  0000000000000000050040100000000000000000000000000000000000000000000000000000000000000000000000000000000000000000000000000000000000000000000000000000000000000000000000000000000000000000000000000000000000000000000000000000000000000000000000000000000000000000000000000000000000000000000000000000000000000000000000000000000000000
02273324448030000000002VENTAS                                                                  03020250531202505311
03273324448030001      03000 000000094288945C      
03273324448030002      00000 000000002828668C      
03273324448030006      00200 000000001294902C      
03273324448030008      00000 000000008089897C      
03273324448030101      00000 000000011715265D      
03273324448030102      00000 000000003195072D      
03273324448030103      00000 000000003195072D      
03273324448030105      00000 000000002130048D      
03273324448030106      00000 000000000532512D      
03273324448030200      00000 000000012425975C      
03273324448030205      00000 000000000372779C      
03273324448030210      00000 000000001066136C      
03273324448030300      00000 000000000415947D      
03273324448030310      00000 000000000069324D      
03273324448030315      00000 000000000277298D      
0427332444803000110101 1 0490080 @@1 01  00  0000000000000000050040100000000000000000000000000000000000000000000000000000000000000000000000000000000000000000000000000000000000000000000000000000000000000000000000000000000000000000000000000000000000000000000000000000000000000000000000000000000000000000000000000000000000000000000000000000000000000000000000000000000000000
02272867129460000000003VENTAS                                                                  03020250531202505311
03272867129460001      03000 000000047144473C      
03272867129460002      00000 000000001414334C      
03272867129460006      00200 000000000647451C      
03272867129460008      00000 000000004044949C      
03272867129460091      00000 000000021063114C      
03272867129460092      00000 000000028308825C      
03272867129460093      00000 000000002359068C      
03272867129460101      00000 000000008434073D      
03272867129460102      00000 000000002300202D      
03272867129460103      00000 000000002300202D      
03272867129460104      00000 000000002099644D      
03272867129460107      00000 000000002300202D      
03272867129460200      00000 000000006212988C      
03272867129460205      00000 000000000186390C      
03272867129460210      00000 000000000533068C      
03272867129460300      00000 000000000207973D      
03272867129460305      00000 000000000207973D      
03272867129460310      00000 000000000034662D      
03272867129460315      00000 000000000138649D      
0427286712946000110101 1 0490010 @@1 01  00  0000000000000000050040100000000000000000000000000000000000000000000000000000000000000000000000000000000000000000000000000000000000000000000000000000000000000000000000000000000000000000000000000000000000000000000000000000000000000000000000000000000000000000000000000000000000000000000000000000000000000000000000000000000000000
02204260095880000000009VENTAS                                                                  03020250531202505311
03204260095880001      03000 000000047144473C      
03204260095880006      00200 000000000628593C      
03204260095880008      00000 000000003927135C      
03204260095880101      00000 000000005687022D      
03204260095880102      00000 000000001551006D      
03204260095880103      00000 000000001551006D      
03204260095880105      00000 000000001034004D      
03204260095880106      00000 000000000258501D      
03204260095880107      00000 000000001551006D      
03204260095880200      00000 000000006212988C      
03204260095880210      00000 000000000517542C      
03204260095880300      00000 000000000201916D      
03204260095880305      00000 000000000201916D      
03204260095880310      00000 000000000033653D      
03204260095880315      00000 000000000134611D      
0420426009588000110101 1 0490010 @@1 01  00  0000000000000000050040100000000000000000000000000000000000000000000000000000000000000000000000000000000000000000000000000000000000000000000000000000000000000000000000000000000000000000000000000000000000000000000000000000000000000000000000000000000000000000000000000000000000000000000000000000000000000000000000000000000000000
02274132590320000000010VENTAS                                                                  03020250531202505311
03274132590320001      03000 000000047144473C      
03274132590320005      01500 000000023572237D      
03274132590320006      00200 000000000314296C      
03274132590320091      00000 000000020449625C      
03274132590320092      00000 000000027484297C      
03274132590320093      00000 000000002290358C      
03274132590320101      00000 000000005128917D      
03274132590320102      00000 000000001398795D      
03274132590320103      00000 000000001398795D      
03274132590320105      00000 000000001482216D      
03274132590320106      00000 000000000370554D      
03274132590320107      00000 000000001398795D      
03274132590320200      00000 000000006212988C      
03274132590320300      00000 000000000186390D      
03274132590320305      00000 000000000186390D      
03274132590320310      00000 000000000031065D      
03274132590320315      00000 000000000124260D      
0427413259032000110101 1 0490010 @@1 01  00  0000000000000000050040100000000000000000000000000000000000000000000000000000000000000000000000000000000000000000000000000000000000000000000000000000000000000000000000000000000000000000000000000000000000000000000000000000000000000000000000000000000000000000000000000000000000000000000000000000000000000000000000000000000000000
02274721573400000000011VENTAS                                                                  03020250531202505311
03274721573400001      03000 000000047144473C      
03274721573400006      00200 000000000628593C      
03274721573400008      00000 000000003927135C      
03274721573400101      00000 000000005687022D      
03274721573400102      00000 000000001551006D      
03274721573400103      00000 000000001551006D      
03274721573400105      00000 000000001034004D      
03274721573400106      00000 000000000258501D      
03274721573400107      00000 000000001551006D      
03274721573400200      00000 000000006212988C      
03274721573400210      00000 000000000517542C      
03274721573400300      00000 000000000201916D      
03274721573400305      00000 000000000201916D      
03274721573400310      00000 000000000033653D      
03274721573400315      00000 000000000134611D      
0427472157340000110101 1 0490010 @@1 01  00  0000000000000000050040100000000000000000000000000000000000000000000000000000000000000000000000000000000000000000000000000000000000000000000000000000000000000000000000000000000000000000000000000000000000000000000000000000000000000000000000000000000000000000000000000000000000000000000000000000000000000000000000000000000000000
02201901019680000000012ADMINISTRACION                                                          03020250531202505311
03201901019680001      03000 000000097123120C      
03201901019680006      00200 000000001294975C      
03201901019680008      00000 000000008090356C      
03201901019680101      00000 000000011715930D      
03201901019680102      00000 000000003195254D      
03201901019680103      00000 000000003195254D      
03201901019680105      00000 000000002130169D      
03201901019680106      00000 000000000532542D      
03201901019680200      00000 000000008684691C      
03201901019680210      00000 000000000723435C      
03201901019680300      00000 000000000282244D      
03201901019680310      00000 000000000047041D      
03201901019680315      00000 000000000188163D      
0420190101968000110101 1 0490080 @@1 01  00  0000000000000000050040100000000000000000000000000000000000000000000000000000000000000000000000000000000000000000000000000000000000000000000000000000000000000000000000000000000000000000000000000000000000000000000000000000000000000000000000000000000000000000000000000000000000000000000000000000000000000000000000000000000000000