0130598389175SJ202503M0000130000003
02201160764710000000001ADMINISTRACION                                                          03020250331202503311
03201160764710001      03000 000000085262600C      
03201160764710002      00000 000000039902900C      
03201160764710006      00300 000000002503310C      
03201160764710007      00000 000000010426290C      
03201160764710030      00000 000000014642883C      
03201160764710033      00000 000000006852869C      
03201160764710034      00000 000000001790596C      
03201160764710101      00000 000000015190461D      
03201160764710102      00000 000000004142853D      
03201160764710103      00000 000000004841443D      
03201160764710104      00000 000000003227629D      
03201160764710105      00000 000000003227629D      
03201160764710106      00000 000000000806907D      
03201160764710108      00000 000000000010000D      
0420116076471000000101 1 0490080 @@1 011 001 0000000000000000050040100000000000000000000000000000000000000000000000000000000000000000000000000000000000000000000000000000000000000000000000000000000000000000000000000000000000000000000000000000000000000000000000000000000000000000000000000000000000000000000000000000000000000000000000000000000000000000000000000000000000000
02202054073090000000002ADMINISTRACION                                                          03020250331202503311
03202054073090001      03000 000000081815260C      
03202054073090002      00000 000000035344190C      
03202054073090006      00300 000000002343190C      
03202054073090007      00000 000000009759380C      
03202054073090030      00000 000000014050840C      
03202054073090033      00000 000000006069963C      
03202054073090034      00000 000000001676063C      
03202054073090101      00000 000000014218822D      
03202054073090102      00000 000000003877861D      
03202054073090103      00000 000000004531767D      
03202054073090104      00000 000000003021178D      
03202054073090105      00000 000000003021178D      
03202054073090106      00000 000000000755294D      
03202054073090108      00000 000000000010000D      
0420205407309000000101 1 0490080 @@1 011 001 0000000000000000050040100000000000000000000000000000000000000000000000000000000000000000000000000000000000000000000000000000000000000000000000000000000000000000000000000000000000000000000000000000000000000000000000000000000000000000000000000000000000000000000000000000000000000000000000000000000000000000000000000000000000000
02202549120270000000007ADMINISTRACION                                                          03020250331202503311
03202549120270001      03000 000000041112360C      
03202549120270002      00000 000000009866970C      
03202549120270006      00300 000000001019590C      
03202549120270007      00000 000000004246580C      
03202549120270030      00000 000000007060585C      
03202549120270033      00000 000000001694540C      
03202549120270034      00000 000000000729302C      
03202549120270101      00000 000000006187005D      
03202549120270102      00000 000000001687365D      
03202549120270108      00000 000000000010000D      
03202549120270110      00000 000000003943800D      
03202549120270115      00000 000000001314600D      
03202549120270120      00000 000000002629200D      
03202549120270125      00000 000000000328650D      
0420254912027000000101 1 0490010 @@1 011 001 0000000000000000050040100000000000000000000000000000000000000000000000000000000000000000000000000000000000000000000000000000000000000000000000000000000000000000000000000000000000000000000000000000000000000000000000000000000000000000000000000000000000000000000000000000000000000000000000000000000000000000000000000000000000000