0127216662534SJ202506M0000130000001
02273287066310000000003ADMINISTRACION                                                          03020250630202506301
03273287066310001      03000 000000050748340C      
03273287066310002      00000 000000009134701C      
03273287066310005      00200 000000000798440C      
03273287066310022      00000 000000002000000C      
03273287066310101      00000 000000006674963D      
03273287066310102      00000 000000001820444D      
03273287066310103      00000 000000003760889D      
03273287066310105      00000 000000001567037D      
0427328706631000000101 1 0493040 031 011 011 0100000000000000011950000000000000000000000000000000000000000000000000000000000000000000000000000000000000000000000000000000000000000000000000000000000000000000000000000000000000000000000000000000000000000000000000000000000000000000000000000000000000000000000000000000000000000000000000000000000000000000000000000000000000000