0127216662534SJ202506M0000230000001
02273287066310000000003ADMINISTRACION                                                          03020250630202506301
03273287066310013      00000 000000030340741C      
03273287066310022      00000 000000001000000C      
03273287066310101      00000 000000003337482D      
03273287066310102      00000 000000000910222D      
03273287066310103      00000 000000001880444D      
03273287066310105      00000 000000000783519D      
0427328706631000000101 1 0493040 031 011 011 0100000000000000011950000000000000000000000000000000000000000000000000000000000000000000000000000000000000000000000000000000000000000000000000000000000000000000000000000000000000000000000000000000000000000000000000000000000000000000000000000000000000000000000000000000000000000000000000000000000000000000000000000000000000000