0120190101968SJ202504M0000130000002
02273087609660000000020VENTAS                                                                  03020250430202504301
03273087609660001      03000 000000044754340C      
03273087609660002      00000 000000000447540C      
03273087609660004      00200 000000000602692C      
03273087609660008      00000 000000003765320C      
03273087609660101      00000 000000005452688D      
03273087609660102      00000 000000001487097D      
03273087609660103      00000 000000002974190D      
03273087609660105      00000 000000000991398D      
03273087609660106      00000 000000000247849D      
03273087609660201      00000 000000007461669C      
03273087609660205      00000 000000000074617C      
03273087609660210      00000 000000000627773C      
03273087609660300      00000 000000000244922D      
03273087609660305      00000 000000000244922D      
03273087609660310      00000 000000000040820D      
03273087609660315      00000 000000000163281D      
03273087609669999      00000 000000000000017C      
0427308760966000110101 1 0490010 @@1 01  00  0000000000000000050040100000000000000000000000000000000000000000000000000000000000000000000000000000000000000000000000000000000000000000000000000000000000000000000000000000000000000000000000000000000000000000000000000000000000000000000000000000000000000000000000000000000000000000000000000000000000000000000000000000000000000
02274189693480000000021VENTAS                                                                  03020250430202504301
03274189693480001      03000 000000044754340C      
03274189693480004      00200 000000000596725C      
03274189693480008      00000 000000003728040C      
03274189693480101      00000 000000005398702D      
03274189693480102      00000 000000001472373D      
03274189693480103      00000 000000002944750D      
03274189693480104      00000 000000000981582D      
03274189693480106      00000 000000000245395D      
03274189693480201      00000 000000007461669C      
03274189693480210      00000 000000000621557C      
03274189693480300      00000 000000000242497D      
03274189693480305      00000 000000000242497D      
03274189693480310      00000 000000000040416D      
03274189693480315      00000 000000000161665D      
0427418969348000110101 1 0490080 @@1 01  00  0000000000000000050040100000000000000000000000000000000000000000000000000000000000000000000000000000000000000000000000000000000000000000000000000000000000000000000000000000000000000000000000000000000000000000000000000000000000000000000000000000000000000000000000000000000000000000000000000000000000000000000000000000000000000