0130717216896SJ202506M0000130000005
02273087609660000000001VENTAS                                                                  03020250630202506301
03273087609660001      03000 000000049800490C      
03273087609660002      00000 000000001494015C      
03273087609660006      00200 000000000683927C      
03273087609660008      00000 000000004272832C      
03273087609660101      00000 000000006187639D      
03273087609660102      00000 000000001687538D      
03273087609660103      00000 000000001687538D      
03273087609660105      00000 000000001125025D      
03273087609660106      00000 000000000281256D      
03273087609660107      00000 000000001687538D      
03273087609660200      00000 000000004398897C      
03273087609660205      00000 000000000131967C      
03273087609660210      00000 000000000377421C      
03273087609660300      00000 000000000147249D      
03273087609660305      00000 000000000147249D      
03273087609660310      00000 000000000024541D      
03273087609660315      00000 000000000098166D      
0427308760966000110101 1 0490010 @@1 01  00  0000000000000000050040100000000000000000000000000000000000000000000000000000000000000000000000000000000000000000000000000000000000000000000000000000000000000000000000000000000000000000000000000000000000000000000000000000000000000000000000000000000000000000000000000000000000000000000000000000000000000000000000000000000000000
02273324448030000000002VENTAS                                                                  03020250630202506301
03273324448030001      03000 000000099600979C      
03273324448030002      00000 000000002988029C      
03273324448030006      00200 000000001367853C      
03273324448030008      00000 000000008545664C      
03273324448030101      00000 000000012375278D      
03273324448030102      00000 000000003375076D      
03273324448030103      00000 000000003375076D      
03273324448030105      00000 000000002250051D      
03273324448030106      00000 000000000562513D      
03273324448030200      00000 000000008797794C      
03273324448030205      00000 000000000263934C      
03273324448030210      00000 000000000754842C      
03273324448030300      00000 000000000294497D      
03273324448030310      00000 000000000049083D      
03273324448030315      00000 000000000196331D      
0427332444803000110101 1 0490080 @@1 01  00  0000000000000000050040100000000000000000000000000000000000000000000000000000000000000000000000000000000000000000000000000000000000000000000000000000000000000000000000000000000000000000000000000000000000000000000000000000000000000000000000000000000000000000000000000000000000000000000000000000000000000000000000000000000000000
02204260095880000000009VENTAS                                                                  03020250630202506301
03204260095880001      03000 000000049800490C      
03204260095880006      00200 000000000664007C      
03204260095880008      00000 000000004148381C      
03204260095880101      00000 000000006007417D      
03204260095880102      00000 000000001638386D      
03204260095880103      00000 000000001638386D      
03204260095880105      00000 000000001092258D      
03204260095880106      00000 000000000273064D      
03204260095880107      00000 000000001638386D      
03204260095880200      00000 000000004398897C      
03204260095880210      00000 000000000366428C      
03204260095880300      00000 000000000142960D      
03204260095880305      00000 000000000142960D      
03204260095880310      00000 000000000023827D      
03204260095880315      00000 000000000095307D      
0420426009588000110101 1 0490010 @@1 01  00  0000000000000000050040100000000000000000000000000000000000000000000000000000000000000000000000000000000000000000000000000000000000000000000000000000000000000000000000000000000000000000000000000000000000000000000000000000000000000000000000000000000000000000000000000000000000000000000000000000000000000000000000000000000000000
02274721573400000000011VENTAS                                                                  03020250630202506301
03274721573400001      03000 000000049800490C      
03274721573400006      00200 000000000664007C      
03274721573400008      00000 000000004148381C      
03274721573400101      00000 000000006007417D      
03274721573400102      00000 000000001638386D      
03274721573400103      00000 000000001638386D      
03274721573400105      00000 000000001092258D      
03274721573400106      00000 000000000273064D      
03274721573400107      00000 000000001638386D      
03274721573400200      00000 000000004398897C      
03274721573400210      00000 000000000366428C      
03274721573400300      00000 000000000142960D      
03274721573400305      00000 000000000142960D      
03274721573400310      00000 000000000023827D      
03274721573400315      00000 000000000095307D      
0427472157340000110101 1 0490010 @@1 01  00  0000000000000000050040100000000000000000000000000000000000000000000000000000000000000000000000000000000000000000000000000000000000000000000000000000000000000000000000000000000000000000000000000000000000000000000000000000000000000000000000000000000000000000000000000000000000000000000000000000000000000000000000000000000000000
02201901019680000000012ADMINISTRACION                                                          03020250630202506301
03201901019680001      03000 000000102595090C      
03201901019680006      00200 000000001367935C      
03201901019680008      00000 000000008546171C      
03201901019680101      00000 000000012376012D      
03201901019680102      00000 000000003375276D      
03201901019680103      00000 000000003375276D      
03201901019680105      00000 000000002250184D      
03201901019680106      00000 000000000562546D      
03201901019680200      00000 000000008797794C      
03201901019680210      00000 000000000732856C      
03201901019680300      00000 000000000285920D      
03201901019680310      00000 000000000047653D      
03201901019680315      00000 000000000190613D      
0420190101968000110101 1 0490080 @@1 01  00  0000000000000000050040100000000000000000000000000000000000000000000000000000000000000000000000000000000000000000000000000000000000000000000000000000000000000000000000000000000000000000000000000000000000000000000000000000000000000000000000000000000000000000000000000000000000000000000000000000000000000000000000000000000000000