0130717216896SJ202506M0000230000005
02273087609660000000001VENTAS                                                                  03020250630202506301
03273087609660011      00000 000000028125632C      
03273087609660101      00000 000000003093820D      
03273087609660102      00000 000000000843769D      
03273087609660103      00000 000000000843769D      
03273087609660105      00000 000000000562513D      
03273087609660106      00000 000000000140628D      
03273087609660107      00000 000000000843769D      
03273087609660201      00000 000000002454143C      
03273087609660300      00000 000000000073624D      
03273087609660305      00000 000000000073624D      
03273087609660310      00000 000000000012271D      
03273087609660315      00000 000000000049083D      
0427308760966000110101 1 0490010 @@1 01  00  0000000000000000050040100000000000000000000000000000000000000000000000000000000000000000000000000000000000000000000000000000000000000000000000000000000000000000000000000000000000000000000000000000000000000000000000000000000000000000000000000000000000000000000000000000000000000000000000000000000000000000000000000000000000000
02273324448030000000002VENTAS                                                                  03020250630202506301
03273324448030011      00000 000000056251276C      
03273324448030101      00000 000000006187640D      
03273324448030102      00000 000000001687538D      
03273324448030103      00000 000000001687538D      
03273324448030105      00000 000000001125026D      
03273324448030106      00000 000000000281256D      
03273324448030201      00000 000000004908285C      
03273324448030300      00000 000000000147249D      
03273324448030310      00000 000000000024541D      
03273324448030315      00000 000000000098166D      
0427332444803000110101 1 0490080 @@1 01  00  0000000000000000050040100000000000000000000000000000000000000000000000000000000000000000000000000000000000000000000000000000000000000000000000000000000000000000000000000000000000000000000000000000000000000000000000000000000000000000000000000000000000000000000000000000000000000000000000000000000000000000000000000000000000000
02204260095880000000009VENTAS                                                                  03020250630202506301
03204260095880011      00000 000000027306439C      
03204260095880101      00000 000000003003708D      
03204260095880102      00000 000000000819193D      
03204260095880103      00000 000000000819193D      
03204260095880105      00000 000000000546129D      
03204260095880106      00000 000000000136532D      
03204260095880107      00000 000000000819193D      
03204260095880201      00000 000000002382663C      
03204260095880300      00000 000000000071480D      
03204260095880305      00000 000000000071480D      
03204260095880310      00000 000000000011913D      
03204260095880315      00000 000000000047653D      
0420426009588000110101 1 0490010 @@1 01  00  0000000000000000050040100000000000000000000000000000000000000000000000000000000000000000000000000000000000000000000000000000000000000000000000000000000000000000000000000000000000000000000000000000000000000000000000000000000000000000000000000000000000000000000000000000000000000000000000000000000000000000000000000000000000000
02274721573400000000011VENTAS                                                                  03020250630202506301
03274721573400011      00000 000000027306439C      
03274721573400101      00000 000000003003708D      
03274721573400102      00000 000000000819193D      
03274721573400103      00000 000000000819193D      
03274721573400105      00000 000000000546129D      
03274721573400106      00000 000000000136532D      
03274721573400107      00000 000000000819193D      
03274721573400201      00000 000000002382663C      
03274721573400300      00000 000000000071480D      
03274721573400305      00000 000000000071480D      
03274721573400310      00000 000000000011913D      
03274721573400315      00000 000000000047653D      
0427472157340000110101 1 0490010 @@1 01  00  0000000000000000050040100000000000000000000000000000000000000000000000000000000000000000000000000000000000000000000000000000000000000000000000000000000000000000000000000000000000000000000000000000000000000000000000000000000000000000000000000000000000000000000000000000000000000000000000000000000000000000000000000000000000000
02201901019680000000012ADMINISTRACION                                                          03020250630202506301
03201901019680011      00000 000000056254598C      
03201901019680101      00000 000000006188006D      
03201901019680102      00000 000000001687638D      
03201901019680103      00000 000000001687638D      
03201901019680105      00000 000000001125092D      
03201901019680106      00000 000000000281273D      
03201901019680201      00000 000000004765325C      
03201901019680300      00000 000000000142960D      
03201901019680310      00000 000000000023827D      
03201901019680315      00000 000000000095307D      
0420190101968000110101 1 0490080 @@1 01  00  0000000000000000050040100000000000000000000000000000000000000000000000000000000000000000000000000000000000000000000000000000000000000000000000000000000000000000000000000000000000000000000000000000000000000000000000000000000000000000000000000000000000000000000000000000000000000000000000000000000000000000000000000000000000000