0130598389175SJ202505M0000130000003
02201160764710000000001ADMINISTRACION                                                          03020250531202505311
03201160764710001      03000 000000095103250C      
03201160764710002      00000 000000044508320C      
03201160764710006      00200 000000001861490C      
03201160764710007      00000 000000011629640C      
03201160764710030      00000 000000008498739C      
03201160764710033      00000 000000003977410C      
03201160764710034      00000 000000001039263C      
03201160764710101      00000 000000016841297D      
03201160764710102      00000 000000004593081D      
03201160764710103      00000 000000004998543D      
03201160764710104      00000 000000003332362D      
03201160764710105      00000 000000003332362D      
03201160764710106      00000 000000000833091D      
03201160764710108      00000 000000000010000D      
0420116076471000000101 1 0490080 @@1 011 001 0000000000000000050040100000000000000000000000000000000000000000000000000000000000000000000000000000000000000000000000000000000000000000000000000000000000000000000000000000000000000000000000000000000000000000000000000000000000000000000000000000000000000000000000000000000000000000000000000000000000000000000000000000000000000
02202054073090000000002ADMINISTRACION                                                          03020250531202505311
03202054073090001      03000 000000091258030C      
03202054073090002      00000 000000040518570C      
03202054073090006      00200 000000001757020C      
03202054073090007      00000 000000010976990C      
03202054073090030      00000 000000008155117C      
03202054073090033      00000 000000003620872C      
03202054073090034      00000 000000000980940C      
03202054073090091      00000 000000056685060C      
03202054073090092      00000 000000190461810C      
03202054073090093      00000 000000015871820C      
03202054073090101      00000 000000023877424D      
03202054073090102      00000 000000006512025D      
03202054073090103      00000 000000012608587D      
03202054073090104      00000 000000008405725D      
03202054073090105      00000 000000008405725D      
03202054073090106      00000 000000002101431D      
03202054073090108      00000 000000000010000D      
0420205407309000000101 1 0490080 @@1 011 001 0000000000000000050040100000000000000000000000000000000000000000000000000000000000000000000000000000000000000000000000000000000000000000000000000000000000000000000000000000000000000000000000000000000000000000000000000000000000000000000000000000000000000000000000000000000000000000000000000000000000000000000000000000000000000
02202549120270000000007ADMINISTRACION                                                          03020250531202505311
03202549120270001      03000 000000045857370C      
03202549120270002      00000 000000011556060C      
03202549120270006      00200 000000000765510C      
03202549120270007      00000 000000004782540C      
03202549120270030      00000 000000004098212C      
03202549120270033      00000 000000001032749C      
03202549120270034      00000 000000000427409C      
03202549120270091      00000 000000024665250C      
03202549120270092      00000 000000082875230C      
03202549120270093      00000 000000006906200C      
03202549120270101      00000 000000010398622D      
03202549120270102      00000 000000002835988D      
03202549120270108      00000 000000000010000D      
03202549120270110      00000 000000010977990D      
03202549120270115      00000 000000003659330D      
03202549120270120      00000 000000007318660D      
03202549120270125      00000 000000000914830D      
0420254912027000000101 1 0490010 @@1 011 001 0000000000000000050040100000000000000000000000000000000000000000000000000000000000000000000000000000000000000000000000000000000000000000000000000000000000000000000000000000000000000000000000000000000000000000000000000000000000000000000000000000000000000000000000000000000000000000000000000000000000000000000000000000000000000