0130717216896SJ202507M0000130000006
02273087609660000000001VENTAS                                                                  03020250731202507311
03273087609660001      03000 000000052721375C      
03273087609660002      00000 000000001581641C      
03273087609660006      00100 000000000362020C      
03273087609660008      00000 000000004523441C      
03273087609660101      00000 000000006510732D      
03273087609660102      00000 000000001775654D      
03273087609660103      00000 000000001775654D      
03273087609660105      00000 000000001183770D      
03273087609660106      00000 000000000295942D      
03273087609660107      00000 000000001775654D      
03273087609660200      00000 000000002000000C      
03273087609660205      00000 000000000060000C      
03273087609660210      00000 000000000171598C      
03273087609660300      00000 000000000066948D      
03273087609660305      00000 000000000066948D      
03273087609660310      00000 000000000011158D      
03273087609660315      00000 000000000044632D      
0427308760966000110101 1 0490010 @@1 01  00  0000000000000000050040100000000000000000000000000000000000000000000000000000000000000000000000000000000000000000000000000000000000000000000000000000000000000000000000000000000000000000000000000000000000000000000000000000000000000000000000000000000000000000000000000000000000000000000000000000000000000000000000000000000000000
02273324448030000000002VENTAS                                                                  03020250731202507311
03273324448030001      03000 000000105442750C      
03273324448030002      00000 000000003163283C      
03273324448030006      00100 000000000724040C      
03273324448030008      00000 000000009046883C      
03273324448030101      00000 000000013021465D      
03273324448030102      00000 000000003551309D      
03273324448030103      00000 000000003551309D      
03273324448030105      00000 000000002367539D      
03273324448030106      00000 000000000591885D      
03273324448030200      00000 000000004000000C      
03273324448030205      00000 000000000120000C      
03273324448030210      00000 000000000343196C      
03273324448030300      00000 000000000133896D      
03273324448030310      00000 000000000022316D      
03273324448030315      00000 000000000089264D      
0427332444803000110101 1 0490080 @@1 01  00  0000000000000000050040100000000000000000000000000000000000000000000000000000000000000000000000000000000000000000000000000000000000000000000000000000000000000000000000000000000000000000000000000000000000000000000000000000000000000000000000000000000000000000000000000000000000000000000000000000000000000000000000000000000000000
02204260095880000000009VENTAS                                                                  03020250731202507311
03204260095880001      03000 000000052721375C      
03204260095880006      00100 000000000351476C      
03204260095880008      00000 000000004391691C      
03204260095880101      00000 000000006321100D      
03204260095880102      00000 000000001723936D      
03204260095880103      00000 000000001723936D      
03204260095880105      00000 000000001149291D      
03204260095880106      00000 000000000287323D      
03204260095880107      00000 000000001723936D      
03204260095880200      00000 000000002000000C      
03204260095880210      00000 000000000166600C      
03204260095880300      00000 000000000064998D      
03204260095880305      00000 000000000064998D      
03204260095880310      00000 000000000010833D      
03204260095880315      00000 000000000043332D      
0420426009588000110101 1 0490010 @@1 01  00  0000000000000000050040100000000000000000000000000000000000000000000000000000000000000000000000000000000000000000000000000000000000000000000000000000000000000000000000000000000000000000000000000000000000000000000000000000000000000000000000000000000000000000000000000000000000000000000000000000000000000000000000000000000000000
02274721573400000000011VENTAS                                                                  03020250731202507311
03274721573400001      03000 000000052721375C      
03274721573400006      00100 000000000351476C      
03274721573400008      00000 000000004391691C      
03274721573400101      00000 000000006321100D      
03274721573400102      00000 000000001723936D      
03274721573400103      00000 000000001723936D      
03274721573400105      00000 000000001149291D      
03274721573400106      00000 000000000287323D      
03274721573400107      00000 000000001723936D      
03274721573400200      00000 000000002000000C      
03274721573400210      00000 000000000166600C      
03274721573400300      00000 000000000064998D      
03274721573400305      00000 000000000064998D      
03274721573400310      00000 000000000010833D      
03274721573400315      00000 000000000043332D      
0427472157340000110101 1 0490010 @@1 01  00  0000000000000000050040100000000000000000000000000000000000000000000000000000000000000000000000000000000000000000000000000000000000000000000000000000000000000000000000000000000000000000000000000000000000000000000000000000000000000000000000000000000000000000000000000000000000000000000000000000000000000000000000000000000000000
02201901019680000000012ADMINISTRACION                                                          03020250731202507311
03201901019680001      03000 000000108617770C      
03201901019680006      00100 000000000724118C      
03201901019680008      00000 000000009047860C      
03201901019680101      00000 000000013022872D      
03201901019680102      00000 000000003551692D      
03201901019680103      00000 000000003551692D      
03201901019680105      00000 000000002367795D      
03201901019680106      00000 000000000591949D      
03201901019680200      00000 000000004000000C      
03201901019680210      00000 000000000333200C      
03201901019680300      00000 000000000129996D      
03201901019680310      00000 000000000021666D      
03201901019680315      00000 000000000086664D      
0420190101968000110101 1 0490080 @@1 01  00  0000000000000000050040100000000000000000000000000000000000000000000000000000000000000000000000000000000000000000000000000000000000000000000000000000000000000000000000000000000000000000000000000000000000000000000000000000000000000000000000000000000000000000000000000000000000000000000000000000000000000000000000000000000000000
02274496094120000000013VENTAS                                                                  03020250731202507311
03274496094120001      03000 000000052721375C      
03274496094120006      00100 000000000351476C      
03274496094120008      00000 000000004391691C      
03274496094120101      00000 000000006321100D      
03274496094120102      00000 000000001723936D      
03274496094120103      00000 000000001723936D      
03274496094120105      00000 000000001149291D      
03274496094120106      00000 000000000287323D      
03274496094120107      00000 000000001723936D      
03274496094120200      00000 000000002000000C      
03274496094120210      00000 000000000166600C      
03274496094120300      00000 000000000064998D      
03274496094120305      00000 000000000064998D      
03274496094120310      00000 000000000010833D      
03274496094120315      00000 000000000043332D      
0427449609412000110101 1 0490080 @@1 01  00  0000000000000000050040100000000000000000000000000000000000000000000000000000000000000000000000000000000000000000000000000000000000000000000000000000000000000000000000000000000000000000000000000000000000000000000000000000000000000000000000000000000000000000000000000000000000000000000000000000000000000000000000000000000000000