0127200418617SJ202509M0000130000001
02273870593130000000002ADMINISTRACION                                                          03020250930202509301
03273870593130001      03000 000000053380550C      
03273870593130002      00000 000000004270444C      
03273870593130006      00000 000000003000000C      
03273870593130007      00000 000000002835300C      
03273870593130101      00000 000000006341609D      
03273870593130102      00000 000000001729530D      
03273870593130103      00000 000000003639060D      
03273870593130105      00000 000000001516275D      
0427387059313000110101 1 0490010 @@1 01  00  0000000000000000011950000000000000000000000000000000000000000000000000000000000000000000000000000000000000000000000000000000000000000000000000000000000000000000000000000000000000000000000000000000000000000000000000000000000000000000000000000000000000000000000000000000000000000000000000000000000000000000000000000000000000000