0127200418617SJ202508M0000130000001
02273870593130000000002ADMINISTRACION                                                          03020250831202508311
03273870593130001      03000 000000052488249C      
03273870593130002      00000 000000004199060C      
03273870593130006      00000 000000003000000C      
03273870593130101      00000 000000006235604D      
03273870593130102      00000 000000001700619D      
03273870593130103      00000 000000003581239D      
03273870593130105      00000 000000001492183D      
0427387059313000110101 1 0490010 @@1 01  00  0000000000000000011950000000000000000000000000000000000000000000000000000000000000000000000000000000000000000000000000000000000000000000000000000000000000000000000000000000000000000000000000000000000000000000000000000000000000000000000000000000000000000000000000000000000000000000000000000000000000000000000000000000000000000