0130717216896SJ202503M0000130000007
02273087609660000000001VENTAS                                                                  01020250331202503311
03273087609660001      03000 000000042266279C      
03273087609660002      00000 000000001267988C      
03273087609660006      00300 000000000870685C      
03273087609660008      00000 000000003626404C      
03273087609660101      00000 000000005283449D      
03273087609660102      00000 000000001440941D      
03273087609660103      00000 000000001440941D      
03273087609660105      00000 000000000960627D      
03273087609660106      00000 000000000240157D      
03273087609660107      00000 000000001440941D      
03273087609660200      00000 000000007258754C      
03273087609660205      00000 000000000217763C      
03273087609660210      00000 000000000622794C      
03273087609660300      00000 000000000242979D      
03273087609660305      00000 000000000242979D      
03273087609660310      00000 000000000040497D      
03273087609660315      00000 000000000161986D      
0427308760966000110101 1 0490010 @@1 01  00  0000000000000000050040100000000000000000000000000000000000000000000000000000000000000000000000000000000000000000000000000000000000000000000000000000000000000000000000000000000000000000000000000000000000000000000000000000000000000000000000000000000000000000000000000000000000000000000000000000000000000000000000000000000000000
02273324448030000000002VENTAS                                                                  01020250331202503311
03273324448030001      03000 000000084532558C      
03273324448030002      00000 000000002535977C      
03273324448030006      00300 000000001741371C      
03273324448030008      00000 000000007252809C      
03273324448030101      00000 000000010566899D      
03273324448030102      00000 000000002881881D      
03273324448030103      00000 000000002881881D      
03273324448030105      00000 000000001921254D      
03273324448030106      00000 000000000480314D      
03273324448030200      00000 000000014517508C      
03273324448030205      00000 000000000435525C      
03273324448030210      00000 000000001245588C      
03273324448030300      00000 000000000485959D      
03273324448030310      00000 000000000080993D      
03273324448030315      00000 000000000323972D      
0427332444803000110101 1 0490080 @@1 01  00  0000000000000000050040100000000000000000000000000000000000000000000000000000000000000000000000000000000000000000000000000000000000000000000000000000000000000000000000000000000000000000000000000000000000000000000000000000000000000000000000000000000000000000000000000000000000000000000000000000000000000000000000000000000000000
02272867129460000000003VENTAS                                                                  01020250331202503311
03272867129460001      03000 000000042266279C      
03272867129460002      00000 000000001267988C      
03272867129460006      00300 000000000870685C      
03272867129460007      00000 000000000182773C      
03272867129460008      00000 000000003626404C      
03272867129460101      00000 000000005303554D      
03272867129460102      00000 000000001446424D      
03272867129460103      00000 000000001446424D      
03272867129460104      00000 000000000964283D      
03272867129460107      00000 000000001446424D      
03272867129460200      00000 000000007258754C      
03272867129460205      00000 000000000217763C      
03272867129460210      00000 000000000622794C      
03272867129460300      00000 000000000242979D      
03272867129460305      00000 000000000242979D      
03272867129460310      00000 000000000040497D      
03272867129460315      00000 000000000161986D      
0427286712946000110101 1 0490010 @@1 01  00  0000000000000000050040100000000000000000000000000000000000000000000000000000000000000000000000000000000000000000000000000000000000000000000000000000000000000000000000000000000000000000000000000000000000000000000000000000000000000000000000000000000000000000000000000000000000000000000000000000000000000000000000000000000000000
02204260095880000000009VENTAS                                                                  01020250331202503311
03204260095880001      03000 000000042266279C      
03204260095880006      00300 000000000845326C      
03204260095880008      00000 000000003520781C      
03204260095880101      00000 000000005129562D      
03204260095880102      00000 000000001398972D      
03204260095880103      00000 000000001398972D      
03204260095880105      00000 000000000932648D      
03204260095880106      00000 000000000233162D      
03204260095880107      00000 000000001398972D      
03204260095880200      00000 000000007258754C      
03204260095880210      00000 000000000604654C      
03204260095880300      00000 000000000235902D      
03204260095880305      00000 000000000235902D      
03204260095880310      00000 000000000039317D      
03204260095880315      00000 000000000157268D      
0420426009588000110101 1 0490140 @@1 01  00  0000000000000000050040100000000000000000000000000000000000000000000000000000000000000000000000000000000000000000000000000000000000000000000000000000000000000000000000000000000000000000000000000000000000000000000000000000000000000000000000000000000000000000000000000000000000000000000000000000000000000000000000000000000000000
02274132590320000000010VENTAS                                                                  01020250331202503311
03274132590320001      03000 000000042266279C      
03274132590320006      00300 000000000845326C      
03274132590320008      00000 000000003520781C      
03274132590320101      00000 000000005129562D      
03274132590320102      00000 000000001398972D      
03274132590320103      00000 000000001398972D      
03274132590320105      00000 000000000932648D      
03274132590320106      00000 000000000233162D      
03274132590320107      00000 000000001398972D      
03274132590320200      00000 000000007258754C      
03274132590320210      00000 000000000604654C      
03274132590320300      00000 000000000235902D      
03274132590320305      00000 000000000235902D      
03274132590320310      00000 000000000039317D      
03274132590320315      00000 000000000157268D      
0427413259032000110101 1 0490140 @@1 01  00  0000000000000000050040100000000000000000000000000000000000000000000000000000000000000000000000000000000000000000000000000000000000000000000000000000000000000000000000000000000000000000000000000000000000000000000000000000000000000000000000000000000000000000000000000000000000000000000000000000000000000000000000000000000000000
02274721573400000000011VENTAS                                                                  01020250331202503311
03274721573400001      03000 000000042266279C      
03274721573400006      00300 000000000845326C      
03274721573400008      00000 000000003520781C      
03274721573400101      00000 000000005129562D      
03274721573400102      00000 000000001398972D      
03274721573400103      00000 000000001398972D      
03274721573400105      00000 000000000932648D      
03274721573400106      00000 000000000233162D      
03274721573400107      00000 000000001398972D      
03274721573400200      00000 000000007258754C      
03274721573400210      00000 000000000604654C      
03274721573400300      00000 000000000235902D      
03274721573400305      00000 000000000235902D      
03274721573400310      00000 000000000039317D      
03274721573400315      00000 000000000157268D      
0427472157340000110101 1 0490140 @@1 01  00  0000000000000000050040100000000000000000000000000000000000000000000000000000000000000000000000000000000000000000000000000000000000000000000000000000000000000000000000000000000000000000000000000000000000000000000000000000000000000000000000000000000000000000000000000000000000000000000000000000000000000000000000000000000000000
02201901019680000000012ADMINISTRACION                                                          01020250331202503311
03201901019680001      03000 000000087072955C      
03201901019680006      00300 000000001741459C      
03201901019680008      00000 000000007253177C      
03201901019680101      00000 000000010567435D      
03201901019680102      00000 000000002882028D      
03201901019680103      00000 000000002882028D      
03201901019680105      00000 000000001921352D      
03201901019680106      00000 000000000480338D      
03201901019680200      00000 000000014959651C      
03201901019680210      00000 000000001246139C      
03201901019680300      00000 000000000486174D      
03201901019680310      00000 000000000081029D      
03201901019680315      00000 000000000324116D      
0420190101968000110101 1 0490080 @@1 01  00  0000000000000000050040100000000000000000000000000000000000000000000000000000000000000000000000000000000000000000000000000000000000000000000000000000000000000000000000000000000000000000000000000000000000000000000000000000000000000000000000000000000000000000000000000000000000000000000000000000000000000000000000000000000000000