0130598389175SJ202504M0000130000003
02201160764710000000001ADMINISTRACION                                                          03020250430202504301
03201160764710001      03000 000000090281700C      
03201160764710002      00000 000000042251840C      
03201160764710006      00200 000000001767110C      
03201160764710007      00000 000000011040040C      
03201160764710030      00000 000000015021991C      
03201160764710033      00000 000000007030292C      
03201160764710034      00000 000000001836955C      
03201160764710101      00000 000000015987476D      
03201160764710102      00000 000000004360221D      
03201160764710103      00000 000000005076898D      
03201160764710104      00000 000000003384599D      
03201160764710105      00000 000000003384599D      
03201160764710106      00000 000000000846150D      
0420116076471000000101 1 0490080 @@1 011 001 0000000000000000050040100000000000000000000000000000000000000000000000000000000000000000000000000000000000000000000000000000000000000000000000000000000000000000000000000000000000000000000000000000000000000000000000000000000000000000000000000000000000000000000000000000000000000000000000000000000000000000000000000000000000000
02202054073090000000002ADMINISTRACION                                                          03020250430202504301
03202054073090001      03000 000000086631420C      
03202054073090002      00000 000000037424770C      
03202054073090006      00200 000000001654080C      
03202054073090007      00000 000000010333880C      
03202054073090030      00000 000000014556132C      
03202054073090033      00000 000000006288249C      
03202054073090034      00000 000000001736337C      
03202054073090101      00000 000000014964857D      
03202054073090102      00000 000000004081325D      
03202054073090103      00000 000000004758746D      
03202054073090104      00000 000000003172497D      
03202054073090105      00000 000000003172497D      
03202054073090106      00000 000000000793124D      
0420205407309000000101 1 0490080 @@1 011 001 0000000000000000050040100000000000000000000000000000000000000000000000000000000000000000000000000000000000000000000000000000000000000000000000000000000000000000000000000000000000000000000000000000000000000000000000000000000000000000000000000000000000000000000000000000000000000000000000000000000000000000000000000000000000000
02202549120270000000007ADMINISTRACION                                                          03020250430202504301
03202549120270001      03000 000000043532490C      
03202549120270002      00000 000000010447800C      
03202549120270006      00200 000000000719740C      
03202549120270007      00000 000000004496560C      
03202549120270030      00000 000000007305736C      
03202549120270033      00000 000000001753377C      
03202549120270034      00000 000000000754624C      
03202549120270101      00000 000000006511625D      
03202549120270102      00000 000000001775898D      
03202549120270108      00000 000000000010000D      
03202549120270110      00000 000000004140620D      
03202549120270120      00000 000000002760410D      
03202549120270125      00000 000000000345050D      
0420254912027000000101 1 0490010 @@1 011 001 0000000000000000050040100000000000000000000000000000000000000000000000000000000000000000000000000000000000000000000000000000000000000000000000000000000000000000000000000000000000000000000000000000000000000000000000000000000000000000000000000000000000000000000000000000000000000000000000000000000000000000000000000000000000000