0130717216896SJ202504M0000130000007
02273087609660000000001VENTAS                                                                  03020250430202504301
03273087609660001      03000 000000044754340C      
03273087609660002      00000 000000001342630C      
03273087609660006      00200 000000000614626C      
03273087609660008      00000 000000003839878C      
03273087609660101      00000 000000005560662D      
03273087609660102      00000 000000001516544D      
03273087609660103      00000 000000001516544D      
03273087609660105      00000 000000001011029D      
03273087609660106      00000 000000000252757D      
03273087609660107      00000 000000001516544D      
03273087609660200      00000 000000007461669C      
03273087609660205      00000 000000000223850C      
03273087609660210      00000 000000000640204C      
03273087609660300      00000 000000000249772D      
03273087609660305      00000 000000000249772D      
03273087609660310      00000 000000000041629D      
03273087609660315      00000 000000000166514D      
0427308760966000110101 1 0490010 @@1 01  00  0000000000000000050040100000000000000000000000000000000000000000000000000000000000000000000000000000000000000000000000000000000000000000000000000000000000000000000000000000000000000000000000000000000000000000000000000000000000000000000000000000000000000000000000000000000000000000000000000000000000000000000000000000000000000
02273324448030000000002VENTAS                                                                  03020250430202504301
03273324448030001      03000 000000089508679C      
03273324448030002      00000 000000002685260C      
03273324448030006      00200 000000001229253C      
03273324448030008      00000 000000007679755C      
03273324448030101      00000 000000011121324D      
03273324448030102      00000 000000003033088D      
03273324448030103      00000 000000003033088D      
03273324448030105      00000 000000002022059D      
03273324448030106      00000 000000000505515D      
03273324448030200      00000 000000014923338C      
03273324448030205      00000 000000000447700C      
03273324448030210      00000 000000001280407C      
03273324448030300      00000 000000000499543D      
03273324448030310      00000 000000000083257D      
03273324448030315      00000 000000000333029D      
0427332444803000110101 1 0490080 @@1 01  00  0000000000000000050040100000000000000000000000000000000000000000000000000000000000000000000000000000000000000000000000000000000000000000000000000000000000000000000000000000000000000000000000000000000000000000000000000000000000000000000000000000000000000000000000000000000000000000000000000000000000000000000000000000000000000
02272867129460000000003VENTAS                                                                  03020250430202504301
03272867129460001      03000 000000044754340C      
03272867129460002      00000 000000001342630C      
03272867129460006      00200 000000000614626C      
03272867129460008      00000 000000003839878C      
03272867129460101      00000 000000005560662D      
03272867129460102      00000 000000001516544D      
03272867129460103      00000 000000001516544D      
03272867129460104      00000 000000001011029D      
03272867129460106      00000 000000000252757D      
03272867129460107      00000 000000001516544D      
03272867129460200      00000 000000007461669C      
03272867129460205      00000 000000000223850C      
03272867129460210      00000 000000000640204C      
03272867129460300      00000 000000000249772D      
03272867129460305      00000 000000000249772D      
03272867129460310      00000 000000000041629D      
03272867129460315      00000 000000000166514D      
0427286712946000110101 1 0490010 @@1 01  00  0000000000000000050040100000000000000000000000000000000000000000000000000000000000000000000000000000000000000000000000000000000000000000000000000000000000000000000000000000000000000000000000000000000000000000000000000000000000000000000000000000000000000000000000000000000000000000000000000000000000000000000000000000000000000
02204260095880000000009VENTAS                                                                  03020250430202504301
03204260095880001      03000 000000044754340C      
03204260095880006      00200 000000000596725C      
03204260095880008      00000 000000003728037C      
03204260095880101      00000 000000005398701D      
03204260095880102      00000 000000001472373D      
03204260095880103      00000 000000001472373D      
03204260095880105      00000 000000000981582D      
03204260095880106      00000 000000000245396D      
03204260095880107      00000 000000001472373D      
03204260095880200      00000 000000007461669C      
03204260095880210      00000 000000000621557C      
03204260095880300      00000 000000000242497D      
03204260095880305      00000 000000000242497D      
03204260095880310      00000 000000000040416D      
03204260095880315      00000 000000000161665D      
0420426009588000110101 1 0490140 @@1 01  00  0000000000000000050040100000000000000000000000000000000000000000000000000000000000000000000000000000000000000000000000000000000000000000000000000000000000000000000000000000000000000000000000000000000000000000000000000000000000000000000000000000000000000000000000000000000000000000000000000000000000000000000000000000000000000
02274132590320000000010VENTAS                                                                  03020250430202504301
03274132590320001      03000 000000044754340C      
03274132590320006      00200 000000000596725C      
03274132590320008      00000 000000003728037C      
03274132590320101      00000 000000005398701D      
03274132590320102      00000 000000001472373D      
03274132590320103      00000 000000001472373D      
03274132590320105      00000 000000000981582D      
03274132590320106      00000 000000000245396D      
03274132590320107      00000 000000001472373D      
03274132590320200      00000 000000007461669C      
03274132590320210      00000 000000000621557C      
03274132590320300      00000 000000000242497D      
03274132590320305      00000 000000000242497D      
03274132590320310      00000 000000000040416D      
03274132590320315      00000 000000000161665D      
0427413259032000110101 1 0490140 @@1 01  00  0000000000000000050040100000000000000000000000000000000000000000000000000000000000000000000000000000000000000000000000000000000000000000000000000000000000000000000000000000000000000000000000000000000000000000000000000000000000000000000000000000000000000000000000000000000000000000000000000000000000000000000000000000000000000
02274721573400000000011VENTAS                                                                  03020250430202504301
03274721573400001      03000 000000044754340C      
03274721573400006      00200 000000000596725C      
03274721573400008      00000 000000003728037C      
03274721573400101      00000 000000005398701D      
03274721573400102      00000 000000001472373D      
03274721573400103      00000 000000001472373D      
03274721573400105      00000 000000000981582D      
03274721573400106      00000 000000000245396D      
03274721573400107      00000 000000001472373D      
03274721573400200      00000 000000007461669C      
03274721573400210      00000 000000000621557C      
03274721573400300      00000 000000000242497D      
03274721573400305      00000 000000000242497D      
03274721573400310      00000 000000000040416D      
03274721573400315      00000 000000000161665D      
0427472157340000110101 1 0490140 @@1 01  00  0000000000000000050040100000000000000000000000000000000000000000000000000000000000000000000000000000000000000000000000000000000000000000000000000000000000000000000000000000000000000000000000000000000000000000000000000000000000000000000000000000000000000000000000000000000000000000000000000000000000000000000000000000000000000
02201901019680000000012ADMINISTRACION                                                          03020250430202504301
03201901019680001      03000 000000092198914C      
03201901019680006      00200 000000001229319C      
03201901019680008      00000 000000007680170C      
03201901019680101      00000 000000011121924D      
03201901019680102      00000 000000003033252D      
03201901019680103      00000 000000003033252D      
03201901019680105      00000 000000002022168D      
03201901019680106      00000 000000000505542D      
03201901019680200      00000 000000015272311C      
03201901019680210      00000 000000001272184C      
03201901019680300      00000 000000000496335D      
03201901019680310      00000 000000000082722D      
03201901019680315      00000 000000000330890D      
0420190101968000110101 1 0490080 @@1 01  00  0000000000000000050040100000000000000000000000000000000000000000000000000000000000000000000000000000000000000000000000000000000000000000000000000000000000000000000000000000000000000000000000000000000000000000000000000000000000000000000000000000000000000000000000000000000000000000000000000000000000000000000000000000000000000