0130717216896SJ202508M0000130000008
02273087609660000000001VENTAS                                                                  03020250831202508311
03273087609660001      03000 000000053243365C      
03273087609660002      00000 000000002129735C      
03273087609660006      00100 000000000369154C      
03273087609660008      00000 000000004612579C      
03273087609660101      00000 000000006639032D      
03273087609660102      00000 000000001810645D      
03273087609660103      00000 000000001810645D      
03273087609660105      00000 000000001207097D      
03273087609660106      00000 000000000301774D      
03273087609660107      00000 000000001810645D      
03273087609660200      00000 000000002000000C      
03273087609660205      00000 000000000080000C      
03273087609660210      00000 000000000173264C      
03273087609660300      00000 000000000067598D      
03273087609660305      00000 000000000067598D      
03273087609660310      00000 000000000011266D      
03273087609660315      00000 000000000045065D      
0427308760966000110101 1 0490010 @@1 01  00  0000000000000000050040100000000000000000000000000000000000000000000000000000000000000000000000000000000000000000000000000000000000000000000000000000000000000000000000000000000000000000000000000000000000000000000000000000000000000000000000000000000000000000000000000000000000000000000000000000000000000000000000000000000000000
02273324448030000000002VENTAS                                                                  03020250831202508311
03273324448030001      03000 000000106486730C      
03273324448030002      00000 000000004259469C      
03273324448030006      00100 000000000738308C      
03273324448030008      00000 000000009225158C      
03273324448030101      00000 000000013278063D      
03273324448030102      00000 000000003621290D      
03273324448030103      00000 000000003621290D      
03273324448030105      00000 000000002414193D      
03273324448030106      00000 000000000603548D      
03273324448030200      00000 000000004000000C      
03273324448030205      00000 000000000160000C      
03273324448030210      00000 000000000346528C      
03273324448030300      00000 000000000135196D      
03273324448030310      00000 000000000022533D      
03273324448030315      00000 000000000090131D      
0427332444803000110101 1 0490080 @@1 01  00  0000000000000000050040100000000000000000000000000000000000000000000000000000000000000000000000000000000000000000000000000000000000000000000000000000000000000000000000000000000000000000000000000000000000000000000000000000000000000000000000000000000000000000000000000000000000000000000000000000000000000000000000000000000000000
02204260095880000000009VENTAS                                                                  03020250831202508311
03204260095880001      03000 000000053243365C      
03204260095880006      00100 000000000354956C      
03204260095880008      00000 000000004435172C      
03204260095880091      00000 000000009583333C      
03204260095880092      00000 000000032200000C      
03204260095880093      00000 000000002683333C      
03204260095880101      00000 000000007733017D      
03204260095880102      00000 000000002109005D      
03204260095880103      00000 000000002109005D      
03204260095880105      00000 000000002050003D      
03204260095880106      00000 000000000512501D      
03204260095880107      00000 000000002109005D      
03204260095880200      00000 000000002000000C      
03204260095880210      00000 000000000166600C      
03204260095880300      00000 000000000064998D      
03204260095880305      00000 000000000064998D      
03204260095880310      00000 000000000010833D      
03204260095880315      00000 000000000043332D      
0420426009588000110101 1 0490010 @@1 01  00  0000000000000000050040100000000000000000000000000000000000000000000000000000000000000000000000000000000000000000000000000000000000000000000000000000000000000000000000000000000000000000000000000000000000000000000000000000000000000000000000000000000000000000000000000000000000000000000000000000000000000000000000000000000000000
02274721573400000000011VENTAS                                                                  03020250831202508311
03274721573400001      03000 000000053243365C      
03274721573400006      00100 000000000354956C      
03274721573400008      00000 000000004435172C      
03274721573400101      00000 000000006383684D      
03274721573400102      00000 000000001741005D      
03274721573400103      00000 000000001741005D      
03274721573400105      00000 000000001160670D      
03274721573400106      00000 000000000290167D      
03274721573400107      00000 000000001741005D      
03274721573400200      00000 000000002000000C      
03274721573400210      00000 000000000166600C      
03274721573400300      00000 000000000064998D      
03274721573400305      00000 000000000064998D      
03274721573400310      00000 000000000010833D      
03274721573400315      00000 000000000043332D      
0427472157340000110101 1 0490010 @@1 01  00  0000000000000000050040100000000000000000000000000000000000000000000000000000000000000000000000000000000000000000000000000000000000000000000000000000000000000000000000000000000000000000000000000000000000000000000000000000000000000000000000000000000000000000000000000000000000000000000000000000000000000000000000000000000000000
02201901019680000000012ADMINISTRACION                                                          03020250831202508311
03201901019680001      03000 000000108617770C      
03201901019680006      00100 000000000724118C      
03201901019680008      00000 000000009047860C      
03201901019680101      00000 000000013022872D      
03201901019680102      00000 000000003551692D      
03201901019680103      00000 000000003551692D      
03201901019680105      00000 000000002367795D      
03201901019680106      00000 000000000591949D      
03201901019680200      00000 000000004000000C      
03201901019680210      00000 000000000333200C      
03201901019680300      00000 000000000129996D      
03201901019680310      00000 000000000021666D      
03201901019680315      00000 000000000086664D      
0420190101968000110101 1 0490080 @@1 01  00  0000000000000000050040100000000000000000000000000000000000000000000000000000000000000000000000000000000000000000000000000000000000000000000000000000000000000000000000000000000000000000000000000000000000000000000000000000000000000000000000000000000000000000000000000000000000000000000000000000000000000000000000000000000000000
02274496094120000000013VENTAS                                                                  03020250831202508311
03274496094120001      03000 000000053243365C      
03274496094120006      00100 000000000354956C      
03274496094120008      00000 000000004435172C      
03274496094120101      00000 000000006383684D      
03274496094120102      00000 000000001741005D      
03274496094120103      00000 000000001741005D      
03274496094120105      00000 000000001160670D      
03274496094120106      00000 000000000290167D      
03274496094120107      00000 000000001741005D      
03274496094120200      00000 000000002000000C      
03274496094120210      00000 000000000166600C      
03274496094120300      00000 000000000064998D      
03274496094120305      00000 000000000064998D      
03274496094120310      00000 000000000010833D      
03274496094120315      00000 000000000043332D      
0427449609412000110101 1 0490080 @@1 01  00  0000000000000000050040100000000000000000000000000000000000000000000000000000000000000000000000000000000000000000000000000000000000000000000000000000000000000000000000000000000000000000000000000000000000000000000000000000000000000000000000000000000000000000000000000000000000000000000000000000000000000000000000000000000000000
02274192305160000000014VENTAS                                                                  03020250831202508311
03274192305160001      03000 000000053243365C      
03274192305160006      00100 000000000354956C      
03274192305160008      00000 000000004435172C      
03274192305160101      00000 000000006383684D      
03274192305160102      00000 000000001741005D      
03274192305160103      00000 000000001741005D      
03274192305160105      00000 000000001160670D      
03274192305160106      00000 000000000290167D      
03274192305160107      00000 000000001741005D      
03274192305160200      00000 000000002000000C      
03274192305160210      00000 000000000166600C      
03274192305160300      00000 000000000064998D      
03274192305160305      00000 000000000064998D      
03274192305160310      00000 000000000010833D      
03274192305160315      00000 000000000043332D      
0427419230516000110101 1 0490080 @@1 01  00  0000000000000000050040100000000000000000000000000000000000000000000000000000000000000000000000000000000000000000000000000000000000000000000000000000000000000000000000000000000000000000000000000000000000000000000000000000000000000000000000000000000000000000000000000000000000000000000000000000000000000000000000000000000000000
02244694163280000000015VENTAS                                                                  03020250831202508311
03244694163280001      03000 000000053243365C      
03244694163280006      00100 000000000354956C      
03244694163280008      00000 000000004435172C      
03244694163280101      00000 000000006383684D      
03244694163280102      00000 000000001741005D      
03244694163280103      00000 000000001741005D      
03244694163280105      00000 000000001160670D      
03244694163280106      00000 000000000290167D      
03244694163280107      00000 000000001741005D      
03244694163280200      00000 000000002000000C      
03244694163280210      00000 000000000166600C      
03244694163280300      00000 000000000064998D      
03244694163280305      00000 000000000064998D      
03244694163280310      00000 000000000010833D      
03244694163280315      00000 000000000043332D      
0424469416328000110101 1 0490080 @@1 01  00  0000000000000000050040100000000000000000000000000000000000000000000000000000000000000000000000000000000000000000000000000000000000000000000000000000000000000000000000000000000000000000000000000000000000000000000000000000000000000000000000000000000000000000000000000000000000000000000000000000000000000000000000000000000000000