0127200418617SJ202506M0000230000001
02273870593130000000002ADMINISTRACION                                                          03020250630202506301
03273870593130004      00000 000000027769500C      
03273870593130009      00000 000000001000000C      
03273870593130101      00000 000000003054645D      
03273870593130102      00000 000000000833085D      
03273870593130103      00000 000000001726170D      
03273870593130105      00000 000000000719238D      
0427387059313000110101 1 0490010 @@1 01  00  0000000000000000011950000000000000000000000000000000000000000000000000000000000000000000000000000000000000000000000000000000000000000000000000000000000000000000000000000000000000000000000000000000000000000000000000000000000000000000000000000000000000000000000000000000000000000000000000000000000000000000000000000000000000000